:020000040000FA
:0600000012EF01F01200F6
:0A000600010042020000800000002B
:0400100027000000C5
:0C001400D9CFE6FFE1CFD9FF020EE126B4
:10002000DE6ADD6ADECF02F0DDCF03F0E80E025CAF
:10003000030E035805E2DF2A010E01E3DB2AF2D7A3
:10004000020EE15C02E2E16AE552E16EE552E7CFC1
:10005000D9FF1200D9CFE6FFE1CFD9FF080EE12684
:10006000956A946A936A0F0EC16EDE6ADD6ADECF0E
:1000700002F0DDCF03F0D890035004E6080E025CD6
:10008000000E035865E2D9CFE9FFDACFEAFF040E8C
:10009000EECFDBFF050EEDCFDBFFDECF02F0DDCFD5
:1000A00003F0080E0226000E0322060E02C0DBFF3C
:1000B000070E03C0DBFF020EDB6A030EDB6A020ED3
:1000C000DBCF02F0030EDBCF03F0D890035004E641
:1000D000080E025C000E035836E2040EDBCFE9FF87
:1000E000050EDBCFEAFF800EE926000EEA22EF5074
:1000F0008B6E060EDBCFE9FF070EDBCFEAFF800E2B
:10010000E926000EEA22EF508A6E020EDBCFE9FFED
:10011000030EDBCFEAFF9F0EE926000EEA22EF5026
:100120008C6E78DF8C6A040EDB2A050E01E3DB2A75
:10013000060EDB2A070E01E3DB2A020EDB2A030E82
:1001400001E3DB2ABCD7DF2A010E01E3DB2A8FD7CC
:100150008CD7080EE15C02E2E16AE552E16EE552FD
:06016000E7CFD9FF1200F9
:0A016600060EF66E000EF76E000E96
:10017000F86E00010900F550AC6F0900F550AD6F45
:1001800003E1AC6701D03DD00900F550A76F09002D
:10019000F550A86F0900F550A96F09000900F55046
:1001A000E96E0900F550EA6E090009000900F550F2
:1001B000AA6F0900F550AB6F09000900F6CFAEF049
:1001C000F7CFAFF0F8CFB0F0A7C0F6FFA8C0F7FFA9
:1001D000A9C0F8FF0001AA5302E1AB5307E00900F0
:1001E000F550EE6EAA07F8E2AB07F9D7AEC0F6FFFE
:1001F000AFC0F7FFB0C0F8FF0001AC07000EAD5B69
:04020000BFD7120052
:0C020400000EF36E00EE00F0060E01D8B4
:100210001200EA6002D0EE6AFCD7F350E9601200E7
:04022000EE6AFCD7AF
:0C02240015EE00F025EE00F0F86A019CD9
:10023000B3EC00F020EC01F02AEC00F0FBD7120048
:020240001200AA
:0E024200FFFFFFFFFFFF007EBDC3FF03F5F6C9
:10025000F583F08F7F8FF0FF7E007EFFFFFFFFFFB3
:09026000FF010204081020408097
:00000001FF
