:020000040000FA
:0600000034EF01F01200D4
:020006000000F8
:08000800D9CFE6FFE1CFD9FFDB
:10001000020EE126DE6ADD6ADECF02F0DDCF03F0FC
:100020006C0E025C000E035805E2DF2A010E01E3AC
:10003000DB2AF2D7020EE15C02E2E16AE552E16EF0
:10004000E552E7CFD9FF1200D9CFE6FFE1CFD9FFC4
:10005000020EE126DE6ADD6ADECF02F0DDCF03F0BC
:10006000350E025C000E035805E2DF2A010E01E3A3
:10007000DB2AF2D7020EE15C02E2E16AE552E16EB0
:10008000E552E7CFD9FF1200D9CFE6FFE1CFD9FF84
:10009000020EE1268280B8DF8290B6DFDE6ADD6A7A
:1000A000DECF02F0DDCF03F0080E025C000E035835
:1000B00019E2DECFE9FFDDCFEAFF010ED890E93685
:1000C000EA36E806FBE1800EE926000EEA22EF5050
:1000D000E8B08280E8A0829097DFDF2A010E01E37A
:1000E000DB2ADED7828090DF020EE15C02E2E16A69
:1000F000E552E16EE552E7CFD9FF1200D9CFE6FF16
:10010000E1CFD9FF020EE12682B2FED79DDF7CDF70
:10011000DE6ADD6ADECF02F0DDCF03F0D890035057
:1001200004E6080E025C000E03581AE28250020B2D
:1001300001E0010EE66EDECFE9FFDDCFEAFFD890E9
:10014000E936EA36800EE926000EEA22E552E7504B
:10015000EE6EED6A59DFDF2A010E01E3DB2ADAD702
:10016000020EE15C02E2E16AE552E16EE552E7CFA0
:10017000D9FF12009490948247DF66DF010E0001E0
:10018000806F816B826B836B846B856B866B876BF7
:10019000886B896B8A6B8B6B8C6F8D6B8E6B8F6BA7
:0A01A00073DFACDF71DFFDD7120042
:0601AA00060EF66E000EC9
:1001B000F76E000EF86E00010900F550956F09000A
:1001C000F550966F03E1956701D03DD00900F550D9
:1001D000906F0900F550916F0900F550926F09007A
:1001E0000900F550E96E0900F550EA6E09000900B2
:1001F0000900F550936F0900F550946F090009004C
:10020000F6CF97F0F7CF98F0F8CF99F090C0F6FFBF
:1002100091C0F7FF92C0F8FF0001935302E194539D
:1002200007E00900F550EE6E9307F8E29407F9D75E
:1002300097C0F6FF98C0F7FF99C0F8FF0001950737
:08024000000E965BBFD712000F
:08024800000EF36E00EE00F061
:10025000060E01D81200EA6002D0EE6AFCD7F35015
:08026000E9601200EE6AFCD710
:0802680015EE00F025EE00F098
:10027000F86A019CD5EC00F042EC01F0BAEC00F019
:04028000FBD7120096
:02028400120066
:00000001FF
