:020000040000FA
:06000000DBEF01F012002D
:0A0006000100D40300008000000098
:040010001A000000D2
:0C001400D9CFE6FFE1CFD9FF050EE126B1
:10002000DE6ADD6ADECF00F0DDCF01F0FD0EDBCF52
:1000300002F0FE0EDBCF03F00250005C03500158CB
:1000400021E2020EDB6A030EDB6A040EDB6AD95082
:10005000020FE96EDACFEAFF400EEE5C9C0EEE581E
:10006000000EEF580AE2D950020FE96EDACFEAFF2C
:10007000EE2A000EEE22EE22EAD7DF2A010E01E37D
:10008000DB2AD0D7050EE15C02E2E16AE552E16EBF
:10009000E552E7CFD9FF12000001802B80510908FB
:1000A0001FE2806B812B815105081AE2816B822B44
:1000B0008251090815E2826B832B8351050810E2F7
:1000C000836B842B020E855D06E18451030803E2F5
:1000D000846B856B05D08451090802E2846B852B03
:1000E00012000001822B8251090815E2826B832BDA
:1000F0008351050810E2836B842B020E855D06E1B7
:100100008451030803E2846B856B05D08451090890
:1001100002E2846B852B12000001842B020E855DA8
:1001200006E18451030803E2846B856B05D084519A
:10013000090802E2846B852B120000018151EA6AF2
:10014000900FE96E000EEA22EF38F00B006E80513E
:10015000EA6A900FE96E000EEA22EF500010826EFC
:100160008351EA6A900FE96E000EEA22EF38F00B35
:10017000006E8251EA6A900FE96E000EEA22EF509B
:100180000010836E8551EA6A900FE96E000EEA2234
:10019000EF38F00B006E8451EA6A900FE96E000EA2
:1001A000EA22EF500010816E1200D9CFE6FFE1CFB6
:1001B000D9FFE65280A457D0010EE66EE66A2ADF28
:1001C000E552E55280A44FD0010EDF6E80C086F06C
:1001D00081C087F082C088F083C089F084C08AF033
:1001E00085C08BF00001806B816B826B836B846BAD
:1001F000856BA3DFDF5037E080A209D072DF010EEC
:10020000E66EE66A07DFE552E55297DF2BD080A065
:1002100009D082DF010EE66EE66AFCDEE552E552A9
:100220008CDF20D080A41DD0010EE66EE66AF2DEDF
:10023000E552E55280A415D082C08CF083C08DF0C9
:1002400084C08EF085C08FF086C080F087C081F0BA
:1002500088C082F089C083F08AC084F08BC085F0AA
:10026000DF6A6BDFC7D7E552E552E7CFD9FF12004F
:1002700000018C51825D14E18D51835D11E18E513D
:10028000845D0EE18F51855D0BE18051030802E32F
:10029000808606D08096630E8C6F8D6F8E6F8F6F09
:1002A000120092829280928492960F0EC16E946A8E
:1002B000956A936A80A209D014DF010EE66EE66AA1
:1002C000A9DEE552E55239DF15D080A009D024DF40
:1002D000010EE66EE66A9EDEE552E5522EDF0AD09A
:1002E00064DFC6DFD9DE010EE66EE66A93DEE55214
:0802F000E55223DFDFD7120005
:0802F800060EF66E000EF76E13
:10030000000EF86E00010900F5509F6F0900F550CE
:10031000A06F03E19F6701D03DD00900F5509A6FAF
:100320000900F5509B6F0900F5509C6F090009000A
:10033000F550E96E0900F550EA6E09000900090060
:10034000F5509D6F0900F5509E6F09000900F6CF2A
:10035000A1F0F7CFA2F0F8CFA3F09AC0F6FF9BC0B0
:10036000F7FF9CC0F8FF00019D5302E19E5307E098
:100370000900F550EE6E9D07F8E29E07F9D7A1C07F
:10038000F6FFA2C0F7FFA3C0F8FF00019F07000E11
:06039000A05BBFD71200C4
:0A039600000EF36E00EE00F0060EFC
:1003A00001D81200EA6002D0EE6AFCD7F350E9608F
:0603B0001200EE6AFCD70A
:0A03B60015EE00F025EE00F0F86AE5
:1003C000059C7CEC01F0E9EC01F051EC01F0FBD76D
:0203D000120019
:0203D200120017
:0C03D4000000000000000000000000001D
:0E03E000636363630001020304050607080956
:00000001FF
