:020000040000FA
:060000002BEF03F01200DB
:020006000000F8
:08000800D9CFE6FFE1CFD9FFDB
:10001000E652DF6A1D0EDF5C02E2DF2AFBD7DF6AF1
:10002000DF6AE552E552E7CFD9FF1200D9CFE6FFEC
:10003000E1CFD9FFE652DF6A0C0EDF5C02E2DF2A75
:10004000FBD7DF6ADF6AE552E552E7CFD9FF12003E
:1000500000018A6B8B6B83B0FED783A0FED783A091
:1000600006D0E4DF00018A2B000E8B23F8D783B083
:1000700006D0DCDF00018A2B000E8B23F8D712009C
:10008000100E086E270E096E8AC00DF08BC00EF0A0
:1000900005EC03F008C08CF009C08DF01200D9CF38
:1000A000E6FFE1CFD9FF060EE126DE6ADD6A020E29
:1000B000DB6A030EDB6A010EF36E040EF3CFDBFF87
:1000C000050EDB6AD950FD0FE96EFF0EDA20EA6EED
:1000D000EE50ED105CE0FD0EDBCF14F0FE0EDBCF3A
:1000E00015F0020E0D6E0E6A14C008F015C009F06E
:1000F00063EC02F004C014F005C015F0020E14C049
:10010000DBFF030E15C0DBFF020E146E156AFD0E39
:10011000DBCF08F0FE0EDBCF09F014C00DF015C0E8
:100120000EF063EC02F0FD0E08C0DBFFFE0E09C00E
:10013000DBFFDECF16F0DDCF17F0020EDBCF08F0CD
:10014000030EDBCF09F0040EDBCF0DF0050EDBCF85
:100150000EF089EC02F016500624146E175007209A
:10016000156E14C0DEFF15C0DDFF0A0E086E096AA9
:10017000040EDBCF0DF0050EDBCF0EF089EC02F0A4
:10018000040E06C0DBFF050E07C0DBFF9BD7DECFEA
:1001900014F0DDCF15F014C0F3FF15C0F4FF060E08
:1001A000E15C03E200D0E16AE552E16EE552E7CF9F
:1001B000D9FF1200D9CFE6FFE1CFD9FF100EE1261B
:1001C0008CC08EF08DC08FF00A0E0D6E0E6A8EC040
:1001D00008F08FC009F005EC03F008C08EF009C0EC
:1001E0008FF08CC090F08DC091F00A0E0D6E0E6AEB
:1001F00090C008F091C009F005EC03F004C090F045
:1002000005C091F08EC0E6FF8FC0E6FF48DFE552E3
:10021000E552F3CF8EF0F4CF8FF090C0E6FF91C09F
:10022000E6FF3DDFE552E552F3CF90F0F4CF91F0D9
:10023000E80E146E030E156E8EC008F08FC009F024
:1002400014C00DF015C00EF005EC03F008C0DEFF81
:1002500009C0DDFF8EC014F08FC015F0E80E0D6EE2
:10026000030E0E6E14C008F015C009F005EC03F083
:1002700004C014F005C015F0020E14C0DBFF030E1D
:1002800015C0DBFF8EC014F08FC015F0640E0D6E2C
:100290000E6A14C008F015C009F005EC03F004C0A4
:1002A00014F005C015F0040E14C0DBFF050E15C0D8
:1002B000DBFF040EDBCF14F0050EDBCF15F00A0ECA
:1002C0000D6E0E6A14C008F015C009F063EC02F060
:1002D00004C014F005C015F0060E14C0DBFF070EB5
:1002E00015C0DBFF0A0E146E156A040EDBCF08F092
:1002F000050EDBCF09F014C00DF015C00EF063EC55
:1003000002F0040E08C0DBFF050E09C0DBFF640E1F
:10031000146E156A020EDBCF08F0030EDBCF09F076
:1003200014C00DF015C00EF063EC02F0020E08C010
:10033000DBFF030E09C0DBFFE80E146E030E156E23
:1003400090C008F091C009F014C00DF015C00EF077
:1003500005EC03F0080E08C0DBFF090E09C0DBFF47
:1003600090C014F091C015F0E80E0D6E030E0E6EE5
:1003700014C008F015C009F005EC03F004C014F037
:1003800005C015F00A0E14C0DBFF0B0E15C0DBFF15
:1003900090C014F091C015F0640E0D6E0E6A14C07A
:1003A00008F015C009F005EC03F004C014F005C016
:1003B00015F00C0E14C0DBFF0D0E15C0DBFF0C0E8C
:1003C000DBCF14F00D0EDBCF15F00A0E0D6E0E6AAA
:1003D00014C008F015C009F063EC02F004C014F07A
:1003E00005C015F00E0E14C0DBFF0F0E15C0DBFFAD
:1003F0000A0E146E156A0C0EDBCF08F00D0EDBCF63
:1004000009F014C00DF015C00EF063EC02F00C0EF4
:1004100008C0DBFF0D0E09C0DBFF640E146E156A09
:100420000A0EDBCF08F00B0EDBCF09F014C00DF085
:1004300015C00EF063EC02F00A0E08C0DBFF0B0ED5
:1004400009C0DBFFDF50E8B08280E8A08290020E96
:10045000DB50E8B08282E8A08292040EDB50E8B064
:100460008284E8A08294060EDB50E8B08286E8A081
:100470008296080EDB50E8B08288E8A082980A0EC7
:10048000DB50E8B0828AE8A0829A0C0EDB50E8B01C
:10049000828CE8A0829C0E0EDB50E8B0828EE8A031
:1004A000829E100EE15C02E2E16AE552E16EE552E5
:1004B000E7CFD9FF12009580946AB8DDC9DDE0DD91
:0604C00079DEFCD71200FA
:0A04C600006A0EAE6CEF02F00D6C40
:1004D0000E1EE86A0E22001E09AE74EF02F0086CD0
:1004E000091EE86A0922001E05EC03F009BE84EF2C
:1004F00002F000AE000C086C091EE86A0922046CC8
:10050000051EE86A0522000C00BE7BEF02F00188A0
:10051000FF0C09C013F008C012F008500D02F4CF10
:1005200007F0F3CF06F009500E02F4CF09F0F3CF35
:1005300008F00D02F3500726F4500822E86A092259
:1005400012500E02F3500726F4500822E86A0922DE
:100550000EAEAFEF02F01250085E1350095A13AE00
:0C056000000C0D50085E0E50095A000CF3
:04056C00060EF66E13
:10057000000EF76E000EF86E00010900F550856F51
:100580000900F550866F03E1856701D03DD0090071
:10059000F550806F0900F550816F0900F550826FAA
:1005A00009000900F550E96E0900F550EA6E0900EE
:1005B00009000900F550836F0900F550846F0900A8
:1005C0000900F6CF87F0F7CF88F0F8CF89F080C028
:1005D000F6FF81C0F7FF82C0F8FF0001835302E1FC
:1005E000845307E00900F550EE6E8307F8E28407B4
:1005F000F9D787C0F6FF88C0F7FF89C0F8FF000170
:0A0600008507000E865BBFD71200CD
:06060A00056A046A100EEF
:10061000E76ED89008360936043605360D50045C6E
:100620000E50055805E30D50045E0E50055A082A79
:06063000E72EF0D71200D6
:0A063600000EF36E00EE00F0060E59
:1006400001D81200EA6002D0EE6AFCD7F350E960EC
:060650001200EE6AFCD767
:0A06560015EE00F025EE00F0F86A42
:10066000019CB6EC02F039EC03F05BEC02F0FBD736
:02067000120076
:02067200120074
:00000001FF
